{
  "contractName": "LockableToken",
  "abi": [
    {
      "inputs": [],
      "stateMutability": "nonpayable",
      "type": "constructor"
    },
    {
      "anonymous": false,
      "inputs": [
        {
          "indexed": true,
          "internalType": "address",
          "name": "owner",
          "type": "address"
        },
        {
          "indexed": true,
          "internalType": "address",
          "name": "spender",
          "type": "address"
        },
        {
          "indexed": false,
          "internalType": "uint256",
          "name": "value",
          "type": "uint256"
        }
      ],
      "name": "Approval",
      "type": "event"
    },
    {
      "anonymous": false,
      "inputs": [
        {
          "indexed": true,
          "internalType": "address",
          "name": "_of",
          "type": "address"
        },
        {
          "indexed": true,
          "internalType": "bytes32",
          "name": "_reason",
          "type": "bytes32"
        },
        {
          "indexed": false,
          "internalType": "uint256",
          "name": "_amount",
          "type": "uint256"
        },
        {
          "indexed": false,
          "internalType": "uint256",
          "name": "_validity",
          "type": "uint256"
        }
      ],
      "name": "Locked",
      "type": "event"
    },
    {
      "anonymous": false,
      "inputs": [
        {
          "indexed": true,
          "internalType": "address",
          "name": "previousOwner",
          "type": "address"
        },
        {
          "indexed": true,
          "internalType": "address",
          "name": "newOwner",
          "type": "address"
        }
      ],
      "name": "OwnershipTransferred",
      "type": "event"
    },
    {
      "anonymous": false,
      "inputs": [
        {
          "indexed": true,
          "internalType": "address",
          "name": "from",
          "type": "address"
        },
        {
          "indexed": true,
          "internalType": "address",
          "name": "to",
          "type": "address"
        },
        {
          "indexed": false,
          "internalType": "uint256",
          "name": "value",
          "type": "uint256"
        }
      ],
      "name": "Transfer",
      "type": "event"
    },
    {
      "anonymous": false,
      "inputs": [
        {
          "indexed": true,
          "internalType": "address",
          "name": "_of",
          "type": "address"
        },
        {
          "indexed": true,
          "internalType": "bytes32",
          "name": "_reason",
          "type": "bytes32"
        },
        {
          "indexed": false,
          "internalType": "uint256",
          "name": "_amount",
          "type": "uint256"
        }
      ],
      "name": "Unlocked",
      "type": "event"
    },
    {
      "inputs": [
        {
          "internalType": "address",
          "name": "owner",
          "type": "address"
        },
        {
          "internalType": "address",
          "name": "spender",
          "type": "address"
        }
      ],
      "name": "allowance",
      "outputs": [
        {
          "internalType": "uint256",
          "name": "",
          "type": "uint256"
        }
      ],
      "stateMutability": "view",
      "type": "function"
    },
    {
      "inputs": [
        {
          "internalType": "address",
          "name": "spender",
          "type": "address"
        },
        {
          "internalType": "uint256",
          "name": "amount",
          "type": "uint256"
        }
      ],
      "name": "approve",
      "outputs": [
        {
          "internalType": "bool",
          "name": "",
          "type": "bool"
        }
      ],
      "stateMutability": "nonpayable",
      "type": "function"
    },
    {
      "inputs": [
        {
          "internalType": "address",
          "name": "account",
          "type": "address"
        }
      ],
      "name": "balanceOf",
      "outputs": [
        {
          "internalType": "uint256",
          "name": "",
          "type": "uint256"
        }
      ],
      "stateMutability": "view",
      "type": "function"
    },
    {
      "inputs": [],
      "name": "decimals",
      "outputs": [
        {
          "internalType": "uint8",
          "name": "",
          "type": "uint8"
        }
      ],
      "stateMutability": "view",
      "type": "function"
    },
    {
      "inputs": [
        {
          "internalType": "address",
          "name": "spender",
          "type": "address"
        },
        {
          "internalType": "uint256",
          "name": "subtractedValue",
          "type": "uint256"
        }
      ],
      "name": "decreaseAllowance",
      "outputs": [
        {
          "internalType": "bool",
          "name": "",
          "type": "bool"
        }
      ],
      "stateMutability": "nonpayable",
      "type": "function"
    },
    {
      "inputs": [
        {
          "internalType": "address",
          "name": "spender",
          "type": "address"
        },
        {
          "internalType": "uint256",
          "name": "addedValue",
          "type": "uint256"
        }
      ],
      "name": "increaseAllowance",
      "outputs": [
        {
          "internalType": "bool",
          "name": "",
          "type": "bool"
        }
      ],
      "stateMutability": "nonpayable",
      "type": "function"
    },
    {
      "inputs": [
        {
          "internalType": "address",
          "name": "",
          "type": "address"
        },
        {
          "internalType": "uint256",
          "name": "",
          "type": "uint256"
        }
      ],
      "name": "lockReason",
      "outputs": [
        {
          "internalType": "bytes32",
          "name": "",
          "type": "bytes32"
        }
      ],
      "stateMutability": "view",
      "type": "function"
    },
    {
      "inputs": [
        {
          "internalType": "address",
          "name": "",
          "type": "address"
        },
        {
          "internalType": "bytes32",
          "name": "",
          "type": "bytes32"
        }
      ],
      "name": "locked",
      "outputs": [
        {
          "internalType": "uint256",
          "name": "amount",
          "type": "uint256"
        },
        {
          "internalType": "uint256",
          "name": "validity",
          "type": "uint256"
        },
        {
          "internalType": "bool",
          "name": "claimed",
          "type": "bool"
        }
      ],
      "stateMutability": "view",
      "type": "function"
    },
    {
      "inputs": [],
      "name": "name",
      "outputs": [
        {
          "internalType": "string",
          "name": "",
          "type": "string"
        }
      ],
      "stateMutability": "view",
      "type": "function"
    },
    {
      "inputs": [],
      "name": "owner",
      "outputs": [
        {
          "internalType": "address",
          "name": "",
          "type": "address"
        }
      ],
      "stateMutability": "view",
      "type": "function"
    },
    {
      "inputs": [],
      "name": "renounceOwnership",
      "outputs": [],
      "stateMutability": "nonpayable",
      "type": "function"
    },
    {
      "inputs": [],
      "name": "symbol",
      "outputs": [
        {
          "internalType": "string",
          "name": "",
          "type": "string"
        }
      ],
      "stateMutability": "view",
      "type": "function"
    },
    {
      "inputs": [],
      "name": "totalSupply",
      "outputs": [
        {
          "internalType": "uint256",
          "name": "",
          "type": "uint256"
        }
      ],
      "stateMutability": "view",
      "type": "function"
    },
    {
      "inputs": [
        {
          "internalType": "address",
          "name": "recipient",
          "type": "address"
        },
        {
          "internalType": "uint256",
          "name": "amount",
          "type": "uint256"
        }
      ],
      "name": "transfer",
      "outputs": [
        {
          "internalType": "bool",
          "name": "",
          "type": "bool"
        }
      ],
      "stateMutability": "nonpayable",
      "type": "function"
    },
    {
      "inputs": [
        {
          "internalType": "address",
          "name": "sender",
          "type": "address"
        },
        {
          "internalType": "address",
          "name": "recipient",
          "type": "address"
        },
        {
          "internalType": "uint256",
          "name": "amount",
          "type": "uint256"
        }
      ],
      "name": "transferFrom",
      "outputs": [
        {
          "internalType": "bool",
          "name": "",
          "type": "bool"
        }
      ],
      "stateMutability": "nonpayable",
      "type": "function"
    },
    {
      "inputs": [
        {
          "internalType": "address",
          "name": "newOwner",
          "type": "address"
        }
      ],
      "name": "transferOwnership",
      "outputs": [],
      "stateMutability": "nonpayable",
      "type": "function"
    },
    {
      "inputs": [
        {
          "internalType": "bytes32",
          "name": "_reason",
          "type": "bytes32"
        },
        {
          "internalType": "uint256",
          "name": "_amount",
          "type": "uint256"
        },
        {
          "internalType": "uint256",
          "name": "_time",
          "type": "uint256"
        },
        {
          "internalType": "address",
          "name": "_beneficiary",
          "type": "address"
        }
      ],
      "name": "lock",
      "outputs": [
        {
          "internalType": "bool",
          "name": "",
          "type": "bool"
        }
      ],
      "stateMutability": "nonpayable",
      "type": "function"
    },
    {
      "inputs": [
        {
          "internalType": "address",
          "name": "_beneficiary",
          "type": "address"
        },
        {
          "internalType": "bytes32",
          "name": "_reason",
          "type": "bytes32"
        },
        {
          "internalType": "uint256",
          "name": "_amountToSend",
          "type": "uint256"
        },
        {
          "internalType": "uint256",
          "name": "_amountToLock",
          "type": "uint256"
        },
        {
          "internalType": "uint256",
          "name": "_time",
          "type": "uint256"
        }
      ],
      "name": "transferWithLock",
      "outputs": [
        {
          "internalType": "bool",
          "name": "",
          "type": "bool"
        }
      ],
      "stateMutability": "nonpayable",
      "type": "function"
    },
    {
      "inputs": [
        {
          "internalType": "address",
          "name": "_of",
          "type": "address"
        },
        {
          "internalType": "bytes32",
          "name": "_reason",
          "type": "bytes32"
        }
      ],
      "name": "tokensLocked",
      "outputs": [
        {
          "internalType": "uint256",
          "name": "amount",
          "type": "uint256"
        }
      ],
      "stateMutability": "view",
      "type": "function"
    },
    {
      "inputs": [
        {
          "internalType": "address",
          "name": "_of",
          "type": "address"
        },
        {
          "internalType": "bytes32",
          "name": "_reason",
          "type": "bytes32"
        },
        {
          "internalType": "uint256",
          "name": "_time",
          "type": "uint256"
        }
      ],
      "name": "tokensLockedAtTime",
      "outputs": [
        {
          "internalType": "uint256",
          "name": "amount",
          "type": "uint256"
        }
      ],
      "stateMutability": "view",
      "type": "function"
    },
    {
      "inputs": [
        {
          "internalType": "address",
          "name": "_of",
          "type": "address"
        }
      ],
      "name": "totalBalanceOf",
      "outputs": [
        {
          "internalType": "uint256",
          "name": "amount",
          "type": "uint256"
        }
      ],
      "stateMutability": "view",
      "type": "function"
    },
    {
      "inputs": [
        {
          "internalType": "bytes32",
          "name": "_reason",
          "type": "bytes32"
        },
        {
          "internalType": "uint256",
          "name": "_time",
          "type": "uint256"
        },
        {
          "internalType": "address",
          "name": "_beneficiary",
          "type": "address"
        }
      ],
      "name": "extendLock",
      "outputs": [
        {
          "internalType": "bool",
          "name": "",
          "type": "bool"
        }
      ],
      "stateMutability": "nonpayable",
      "type": "function"
    },
    {
      "inputs": [
        {
          "internalType": "bytes32",
          "name": "_reason",
          "type": "bytes32"
        },
        {
          "internalType": "uint256",
          "name": "_amount",
          "type": "uint256"
        },
        {
          "internalType": "address",
          "name": "_beneficiary",
          "type": "address"
        }
      ],
      "name": "increaseLockAmount",
      "outputs": [
        {
          "internalType": "bool",
          "name": "",
          "type": "bool"
        }
      ],
      "stateMutability": "nonpayable",
      "type": "function"
    },
    {
      "inputs": [
        {
          "internalType": "address",
          "name": "_of",
          "type": "address"
        },
        {
          "internalType": "bytes32",
          "name": "_reason",
          "type": "bytes32"
        }
      ],
      "name": "tokensUnlockable",
      "outputs": [
        {
          "internalType": "uint256",
          "name": "amount",
          "type": "uint256"
        }
      ],
      "stateMutability": "view",
      "type": "function"
    },
    {
      "inputs": [
        {
          "internalType": "address",
          "name": "_of",
          "type": "address"
        }
      ],
      "name": "unlock",
      "outputs": [
        {
          "internalType": "uint256",
          "name": "unlockableTokens",
          "type": "uint256"
        }
      ],
      "stateMutability": "nonpayable",
      "type": "function"
    },
    {
      "inputs": [
        {
          "internalType": "address",
          "name": "_of",
          "type": "address"
        }
      ],
      "name": "getUnlockableTokens",
      "outputs": [
        {
          "internalType": "uint256",
          "name": "unlockableTokens",
          "type": "uint256"
        }
      ],
      "stateMutability": "view",
      "type": "function"
    }
  ],
  "bytecode": "0x6080604052601460085560506009553480156200001b57600080fd5b506040518060400160405280600481526020017f626d7063000000000000000000000000000000000000000000000000000000008152506040518060400160405280600481526020017f424d5043000000000000000000000000000000000000000000000000000000008152508160059080519060200190620000a092919062000421565b508060069080519060200190620000b992919062000421565b506012600760006101000a81548160ff021916908360ff16021790555050506000620000ea620001ab60201b60201c565b905080600760016101000a81548173ffffffffffffffffffffffffffffffffffffffff021916908373ffffffffffffffffffffffffffffffffffffffff1602179055508073ffffffffffffffffffffffffffffffffffffffff16600073ffffffffffffffffffffffffffffffffffffffff167f8be0079c531659141344cd1fd0a4f28419497f9722a3daafe3b4186f6b6457e060405160405180910390a350620001a53369d3c21bcecceda1000000620001b360201b60201c565b620004c7565b600033905090565b600073ffffffffffffffffffffffffffffffffffffffff168273ffffffffffffffffffffffffffffffffffffffff16141562000257576040517f08c379a000000000000000000000000000000000000000000000000000000000815260040180806020018281038252601f8152602001807f45524332303a206d696e7420746f20746865207a65726f20616464726573730081525060200191505060405180910390fd5b6200026b600083836200039360201b60201c565b62000287816004546200039860201b62002efe1790919060201c565b600481905550620002e681600260008573ffffffffffffffffffffffffffffffffffffffff1673ffffffffffffffffffffffffffffffffffffffff168152602001908152602001600020546200039860201b62002efe1790919060201c565b600260008473ffffffffffffffffffffffffffffffffffffffff1673ffffffffffffffffffffffffffffffffffffffff168152602001908152602001600020819055508173ffffffffffffffffffffffffffffffffffffffff16600073ffffffffffffffffffffffffffffffffffffffff167fddf252ad1be2c89b69c2b068fc378daa952ba7f163c4a11628f55a4df523b3ef836040518082815260200191505060405180910390a35050565b505050565b60008082840190508381101562000417576040517f08c379a000000000000000000000000000000000000000000000000000000000815260040180806020018281038252601b8152602001807f536166654d6174683a206164646974696f6e206f766572666c6f77000000000081525060200191505060405180910390fd5b8091505092915050565b828054600181600116156101000203166002900490600052602060002090601f016020900481019282601f106200046457805160ff191683800117855562000495565b8280016001018555821562000495579182015b828111156200049457825182559160200191906001019062000477565b5b509050620004a49190620004a8565b5090565b5b80821115620004c3576000816000905550600101620004a9565b5090565b61366680620004d76000396000f3fe608060405234801561001057600080fd5b506004361061018d5760003560e01c806370a08231116100de578063a9059cbb11610097578063dc281d4e11610071578063dc281d4e14610973578063dd62ed3e146109f5578063ee97edbc14610a6d578063f2fde38b14610adb5761018d565b8063a9059cbb14610845578063ab4a2eb3146108a9578063d71be8db146109015761018d565b806370a0823114610666578063715018a6146106be57806371d66f00146106c85780638da5cb5b1461072a57806395d89b411461075e578063a457c2d7146107e15761018d565b806323b872dd1161014b578063395093511161012557806339509351146104e65780634b0ee02a1461054a5780635294d0e8146105a25780635ca48d8c146106045761018d565b806323b872dd146103e95780632f6c493c1461046d578063313ce567146104c55761018d565b80624d0f6c1461019257806306fdde0314610200578063095ea7b314610283578063179e91f1146102e757806318160ddd146103535780631a69dc5c14610371575b600080fd5b6101e8600480360360608110156101a857600080fd5b810190808035906020019092919080359060200190929190803573ffffffffffffffffffffffffffffffffffffffff169060200190929190505050610b1f565b60405180821515815260200191505060405180910390f35b610208610e8a565b6040518080602001828103825283818151815260200191508051906020019080838360005b8381101561024857808201518184015260208101905061022d565b50505050905090810190601f1680156102755780820380516001836020036101000a031916815260200191505b509250505060405180910390f35b6102cf6004803603604081101561029957600080fd5b81019080803573ffffffffffffffffffffffffffffffffffffffff16906020019092919080359060200190929190505050610f2c565b60405180821515815260200191505060405180910390f35b61033d600480360360608110156102fd57600080fd5b81019080803573ffffffffffffffffffffffffffffffffffffffff1690602001909291908035906020019092919080359060200190929190505050610f4a565b6040518082815260200191505060405180910390f35b61035b6110b4565b6040518082815260200191505060405180910390f35b6103d16004803603608081101561038757600080fd5b81019080803590602001909291908035906020019092919080359060200190929190803573ffffffffffffffffffffffffffffffffffffffff1690602001909291905050506110be565b60405180821515815260200191505060405180910390f35b610455600480360360608110156103ff57600080fd5b81019080803573ffffffffffffffffffffffffffffffffffffffff169060200190929190803573ffffffffffffffffffffffffffffffffffffffff16906020019092919080359060200190929190505050611528565b60405180821515815260200191505060405180910390f35b6104af6004803603602081101561048357600080fd5b81019080803573ffffffffffffffffffffffffffffffffffffffff169060200190929190505050611601565b6040518082815260200191505060405180910390f35b6104cd6119ac565b604051808260ff16815260200191505060405180910390f35b610532600480360360408110156104fc57600080fd5b81019080803573ffffffffffffffffffffffffffffffffffffffff169060200190929190803590602001909291905050506119c3565b60405180821515815260200191505060405180910390f35b61058c6004803603602081101561056057600080fd5b81019080803573ffffffffffffffffffffffffffffffffffffffff169060200190929190505050611a76565b6040518082815260200191505060405180910390f35b6105ee600480360360408110156105b857600080fd5b81019080803573ffffffffffffffffffffffffffffffffffffffff16906020019092919080359060200190929190505050611c02565b6040518082815260200191505060405180910390f35b6106506004803603604081101561061a57600080fd5b81019080803573ffffffffffffffffffffffffffffffffffffffff16906020019092919080359060200190929190505050611dd6565b6040518082815260200191505060405180910390f35b6106a86004803603602081101561067c57600080fd5b81019080803573ffffffffffffffffffffffffffffffffffffffff169060200190929190505050611f49565b6040518082815260200191505060405180910390f35b6106c6611f92565b005b610714600480360360408110156106de57600080fd5b81019080803573ffffffffffffffffffffffffffffffffffffffff16906020019092919080359060200190929190505050612102565b6040518082815260200191505060405180910390f35b610732612130565b604051808273ffffffffffffffffffffffffffffffffffffffff16815260200191505060405180910390f35b61076661215a565b6040518080602001828103825283818151815260200191508051906020019080838360005b838110156107a657808201518184015260208101905061078b565b50505050905090810190601f1680156107d35780820380516001836020036101000a031916815260200191505b509250505060405180910390f35b61082d600480360360408110156107f757600080fd5b81019080803573ffffffffffffffffffffffffffffffffffffffff169060200190929190803590602001909291905050506121fc565b60405180821515815260200191505060405180910390f35b6108916004803603604081101561085b57600080fd5b81019080803573ffffffffffffffffffffffffffffffffffffffff169060200190929190803590602001909291905050506122c9565b60405180821515815260200191505060405180910390f35b6108eb600480360360208110156108bf57600080fd5b81019080803573ffffffffffffffffffffffffffffffffffffffff1690602001909291905050506122e7565b6040518082815260200191505060405180910390f35b61094d6004803603604081101561091757600080fd5b81019080803573ffffffffffffffffffffffffffffffffffffffff16906020019092919080359060200190929190505050612468565b604051808481526020018381526020018215158152602001935050505060405180910390f35b6109dd600480360360a081101561098957600080fd5b81019080803573ffffffffffffffffffffffffffffffffffffffff169060200190929190803590602001909291908035906020019092919080359060200190929190803590602001909291905050506124ac565b60405180821515815260200191505060405180910390f35b610a5760048036036040811015610a0b57600080fd5b81019080803573ffffffffffffffffffffffffffffffffffffffff169060200190929190803573ffffffffffffffffffffffffffffffffffffffff169060200190929190505050612922565b6040518082815260200191505060405180910390f35b610ac360048036036060811015610a8357600080fd5b810190808035906020019092919080359060200190929190803573ffffffffffffffffffffffffffffffffffffffff1690602001909291905050506129a9565b60405180821515815260200191505060405180910390f35b610b1d60048036036020811015610af157600080fd5b81019080803573ffffffffffffffffffffffffffffffffffffffff169060200190929190505050612d09565b005b6000610b29612f86565b73ffffffffffffffffffffffffffffffffffffffff16610b47612130565b73ffffffffffffffffffffffffffffffffffffffff1614610bd0576040517f08c379a00000000000000000000000000000000000000000000000000000000081526004018080602001828103825260208152602001807f4f776e61626c653a2063616c6c6572206973206e6f7420746865206f776e657281525060200191505060405180910390fd5b6000610bdc8386611dd6565b116040518060400160405280601081526020017f4e6f20746f6b656e73206c6f636b65640000000000000000000000000000000081525090610cb9576040517f08c379a00000000000000000000000000000000000000000000000000000000081526004018080602001828103825283818151815260200191508051906020019080838360005b83811015610c7e578082015181840152602081019050610c63565b50505050905090810190601f168015610cab5780820380516001836020036101000a031916815260200191505b509250505060405180910390fd5b50610cc430846122c9565b50610d2b83600160008573ffffffffffffffffffffffffffffffffffffffff1673ffffffffffffffffffffffffffffffffffffffff168152602001908152602001600020600087815260200190815260200160002060000154612efe90919063ffffffff16565b600160008473ffffffffffffffffffffffffffffffffffffffff1673ffffffffffffffffffffffffffffffffffffffff168152602001908152602001600020600086815260200190815260200160002060000181905550838273ffffffffffffffffffffffffffffffffffffffff167fea90ef40963535482537f0689e05cb8d259e459ebd21530e826702294d0eafdd600160008673ffffffffffffffffffffffffffffffffffffffff1673ffffffffffffffffffffffffffffffffffffffff168152602001908152602001600020600088815260200190815260200160002060000154600160008773ffffffffffffffffffffffffffffffffffffffff1673ffffffffffffffffffffffffffffffffffffffff168152602001908152602001600020600089815260200190815260200160002060010154604051808381526020018281526020019250505060405180910390a3600190509392505050565b606060058054600181600116156101000203166002900480601f016020809104026020016040519081016040528092919081815260200182805460018160011615610100020316600290048015610f225780601f10610ef757610100808354040283529160200191610f22565b820191906000526020600020905b815481529060010190602001808311610f0557829003601f168201915b5050505050905090565b6000610f40610f39612f86565b8484612f8e565b6001905092915050565b6000610f54612f86565b73ffffffffffffffffffffffffffffffffffffffff16610f72612130565b73ffffffffffffffffffffffffffffffffffffffff1614610ffb576040517f08c379a00000000000000000000000000000000000000000000000000000000081526004018080602001828103825260208152602001807f4f776e61626c653a2063616c6c6572206973206e6f7420746865206f776e657281525060200191505060405180910390fd5b81600160008673ffffffffffffffffffffffffffffffffffffffff1673ffffffffffffffffffffffffffffffffffffffff16815260200190815260200160002060008581526020019081526020016000206001015411156110ad57600160008573ffffffffffffffffffffffffffffffffffffffff1673ffffffffffffffffffffffffffffffffffffffff16815260200190815260200160002060008481526020019081526020016000206000015490505b9392505050565b6000600454905090565b60006110c8612f86565b73ffffffffffffffffffffffffffffffffffffffff166110e6612130565b73ffffffffffffffffffffffffffffffffffffffff161461116f576040517f08c379a00000000000000000000000000000000000000000000000000000000081526004018080602001828103825260208152602001807f4f776e61626c653a2063616c6c6572206973206e6f7420746865206f776e657281525060200191505060405180910390fd5b60006111848442612efe90919063ffffffff16565b905060006111928488611dd6565b146040518060400160405280601581526020017f546f6b656e7320616c7265616479206c6f636b656400000000000000000000008152509061126f576040517f08c379a00000000000000000000000000000000000000000000000000000000081526004018080602001828103825283818151815260200191508051906020019080838360005b83811015611234578082015181840152602081019050611219565b50505050905090810190601f1680156112615780820380516001836020036101000a031916815260200191505b509250505060405180910390fd5b5060008514156040518060400160405280601381526020017f416d6f756e742063616e206e6f7420626520300000000000000000000000000081525090611351576040517f08c379a00000000000000000000000000000000000000000000000000000000081526004018080602001828103825283818151815260200191508051906020019080838360005b838110156113165780820151818401526020810190506112fb565b50505050905090810190601f1680156113435780820380516001836020036101000a031916815260200191505b509250505060405180910390fd5b506000600160008573ffffffffffffffffffffffffffffffffffffffff1673ffffffffffffffffffffffffffffffffffffffff1681526020019081526020016000206000888152602001908152602001600020600001541415611414576000808473ffffffffffffffffffffffffffffffffffffffff1673ffffffffffffffffffffffffffffffffffffffff1681526020019081526020016000208690806001815401808255809150506001900390600052602060002001600090919091909150555b61141e30866122c9565b50604051806060016040528086815260200182815260200160001515815250600160008573ffffffffffffffffffffffffffffffffffffffff1673ffffffffffffffffffffffffffffffffffffffff1681526020019081526020016000206000888152602001908152602001600020600082015181600001556020820151816001015560408201518160020160006101000a81548160ff021916908315150217905550905050858373ffffffffffffffffffffffffffffffffffffffff167fea90ef40963535482537f0689e05cb8d259e459ebd21530e826702294d0eafdd8784604051808381526020018281526020019250505060405180910390a36001915050949350505050565b6000611535848484613185565b6115f684611541612f86565b6115f18560405180606001604052806028815260200161359b60289139600360008b73ffffffffffffffffffffffffffffffffffffffff1673ffffffffffffffffffffffffffffffffffffffff16815260200190815260200160002060006115a7612f86565b73ffffffffffffffffffffffffffffffffffffffff1673ffffffffffffffffffffffffffffffffffffffff1681526020019081526020016000205461344a9092919063ffffffff16565b612f8e565b600190509392505050565b600061160b612f86565b73ffffffffffffffffffffffffffffffffffffffff16611629612130565b73ffffffffffffffffffffffffffffffffffffffff16146116b2576040517f08c379a00000000000000000000000000000000000000000000000000000000081526004018080602001828103825260208152602001807f4f776e61626c653a2063616c6c6572206973206e6f7420746865206f776e657281525060200191505060405180910390fd5b600080600090505b6000808573ffffffffffffffffffffffffffffffffffffffff1673ffffffffffffffffffffffffffffffffffffffff168152602001908152602001600020805490508110156118ee57611760846000808773ffffffffffffffffffffffffffffffffffffffff1673ffffffffffffffffffffffffffffffffffffffff168152602001908152602001600020838154811061175057fe5b9060005260206000200154611c02565b915060008211156118e15761177e8284612efe90919063ffffffff16565b925060018060008673ffffffffffffffffffffffffffffffffffffffff1673ffffffffffffffffffffffffffffffffffffffff16815260200190815260200160002060008060008873ffffffffffffffffffffffffffffffffffffffff1673ffffffffffffffffffffffffffffffffffffffff168152602001908152602001600020848154811061180b57fe5b9060005260206000200154815260200190815260200160002060020160006101000a81548160ff0219169083151502179055506000808573ffffffffffffffffffffffffffffffffffffffff1673ffffffffffffffffffffffffffffffffffffffff168152602001908152602001600020818154811061188757fe5b90600052602060002001548473ffffffffffffffffffffffffffffffffffffffff167f11f87fd5adcd05786919b8b868f59a70d78ae4eb6f305c5927f9c5b1659841a4846040518082815260200191505060405180910390a35b80806001019150506116ba565b5060008211156119a6573073ffffffffffffffffffffffffffffffffffffffff1663a9059cbb84846040518363ffffffff1660e01b8152600401808373ffffffffffffffffffffffffffffffffffffffff16815260200182815260200192505050602060405180830381600087803b15801561196957600080fd5b505af115801561197d573d6000803e3d6000fd5b505050506040513d602081101561199357600080fd5b8101908080519060200190929190505050505b50919050565b6000600760009054906101000a900460ff16905090565b6000611a6c6119d0612f86565b84611a6785600360006119e1612f86565b73ffffffffffffffffffffffffffffffffffffffff1673ffffffffffffffffffffffffffffffffffffffff16815260200190815260200160002060008973ffffffffffffffffffffffffffffffffffffffff1673ffffffffffffffffffffffffffffffffffffffff16815260200190815260200160002054612efe90919063ffffffff16565b612f8e565b6001905092915050565b6000611a80612f86565b73ffffffffffffffffffffffffffffffffffffffff16611a9e612130565b73ffffffffffffffffffffffffffffffffffffffff1614611b27576040517f08c379a00000000000000000000000000000000000000000000000000000000081526004018080602001828103825260208152602001807f4f776e61626c653a2063616c6c6572206973206e6f7420746865206f776e657281525060200191505060405180910390fd5b611b3082611f49565b905060005b6000808473ffffffffffffffffffffffffffffffffffffffff1673ffffffffffffffffffffffffffffffffffffffff16815260200190815260200160002080549050811015611bfc57611bed611bde846000808773ffffffffffffffffffffffffffffffffffffffff1673ffffffffffffffffffffffffffffffffffffffff1681526020019081526020016000208481548110611bce57fe5b9060005260206000200154611dd6565b83612efe90919063ffffffff16565b91508080600101915050611b35565b50919050565b6000611c0c612f86565b73ffffffffffffffffffffffffffffffffffffffff16611c2a612130565b73ffffffffffffffffffffffffffffffffffffffff1614611cb3576040517f08c379a00000000000000000000000000000000000000000000000000000000081526004018080602001828103825260208152602001807f4f776e61626c653a2063616c6c6572206973206e6f7420746865206f776e657281525060200191505060405180910390fd5b42600160008573ffffffffffffffffffffffffffffffffffffffff1673ffffffffffffffffffffffffffffffffffffffff16815260200190815260200160002060008481526020019081526020016000206001015411158015611d745750600160008473ffffffffffffffffffffffffffffffffffffffff1673ffffffffffffffffffffffffffffffffffffffff168152602001908152602001600020600083815260200190815260200160002060020160009054906101000a900460ff16155b15611dd057600160008473ffffffffffffffffffffffffffffffffffffffff1673ffffffffffffffffffffffffffffffffffffffff16815260200190815260200160002060008381526020019081526020016000206000015490505b92915050565b6000611de0612f86565b73ffffffffffffffffffffffffffffffffffffffff16611dfe612130565b73ffffffffffffffffffffffffffffffffffffffff1614611e87576040517f08c379a00000000000000000000000000000000000000000000000000000000081526004018080602001828103825260208152602001807f4f776e61626c653a2063616c6c6572206973206e6f7420746865206f776e657281525060200191505060405180910390fd5b600160008473ffffffffffffffffffffffffffffffffffffffff1673ffffffffffffffffffffffffffffffffffffffff168152602001908152602001600020600083815260200190815260200160002060020160009054906101000a900460ff16611f4357600160008473ffffffffffffffffffffffffffffffffffffffff1673ffffffffffffffffffffffffffffffffffffffff16815260200190815260200160002060008381526020019081526020016000206000015490505b92915050565b6000600260008373ffffffffffffffffffffffffffffffffffffffff1673ffffffffffffffffffffffffffffffffffffffff168152602001908152602001600020549050919050565b611f9a612f86565b73ffffffffffffffffffffffffffffffffffffffff16611fb8612130565b73ffffffffffffffffffffffffffffffffffffffff1614612041576040517f08c379a00000000000000000000000000000000000000000000000000000000081526004018080602001828103825260208152602001807f4f776e61626c653a2063616c6c6572206973206e6f7420746865206f776e657281525060200191505060405180910390fd5b600073ffffffffffffffffffffffffffffffffffffffff16600760019054906101000a900473ffffffffffffffffffffffffffffffffffffffff1673ffffffffffffffffffffffffffffffffffffffff167f8be0079c531659141344cd1fd0a4f28419497f9722a3daafe3b4186f6b6457e060405160405180910390a36000600760016101000a81548173ffffffffffffffffffffffffffffffffffffffff021916908373ffffffffffffffffffffffffffffffffffffffff160217905550565b6000602052816000526040600020818154811061211b57fe5b90600052602060002001600091509150505481565b6000600760019054906101000a900473ffffffffffffffffffffffffffffffffffffffff16905090565b606060068054600181600116156101000203166002900480601f0160208091040260200160405190810160405280929190818152602001828054600181600116156101000203166002900480156121f25780601f106121c7576101008083540402835291602001916121f2565b820191906000526020600020905b8154815290600101906020018083116121d557829003601f168201915b5050505050905090565b60006122bf612209612f86565b846122ba8560405180606001604052806025815260200161360c6025913960036000612233612f86565b73ffffffffffffffffffffffffffffffffffffffff1673ffffffffffffffffffffffffffffffffffffffff16815260200190815260200160002060008a73ffffffffffffffffffffffffffffffffffffffff1673ffffffffffffffffffffffffffffffffffffffff1681526020019081526020016000205461344a9092919063ffffffff16565b612f8e565b6001905092915050565b60006122dd6122d6612f86565b8484613185565b6001905092915050565b60006122f1612f86565b73ffffffffffffffffffffffffffffffffffffffff1661230f612130565b73ffffffffffffffffffffffffffffffffffffffff1614612398576040517f08c379a00000000000000000000000000000000000000000000000000000000081526004018080602001828103825260208152602001807f4f776e61626c653a2063616c6c6572206973206e6f7420746865206f776e657281525060200191505060405180910390fd5b60005b6000808473ffffffffffffffffffffffffffffffffffffffff1673ffffffffffffffffffffffffffffffffffffffff1681526020019081526020016000208054905081101561246257612453612444846000808773ffffffffffffffffffffffffffffffffffffffff1673ffffffffffffffffffffffffffffffffffffffff168152602001908152602001600020848154811061243457fe5b9060005260206000200154611c02565b83612efe90919063ffffffff16565b9150808060010191505061239b565b50919050565b6001602052816000526040600020602052806000526040600020600091509150508060000154908060010154908060020160009054906101000a900460ff16905083565b60006124b6612f86565b73ffffffffffffffffffffffffffffffffffffffff166124d4612130565b73ffffffffffffffffffffffffffffffffffffffff161461255d576040517f08c379a00000000000000000000000000000000000000000000000000000000081526004018080602001828103825260208152602001807f4f776e61626c653a2063616c6c6572206973206e6f7420746865206f776e657281525060200191505060405180910390fd5b60006125728342612efe90919063ffffffff16565b905060006125808888611dd6565b146040518060400160405280601581526020017f546f6b656e7320616c7265616479206c6f636b656400000000000000000000008152509061265d576040517f08c379a00000000000000000000000000000000000000000000000000000000081526004018080602001828103825283818151815260200191508051906020019080838360005b83811015612622578082015181840152602081019050612607565b50505050905090810190601f16801561264f5780820380516001836020036101000a031916815260200191505b509250505060405180910390fd5b5060008514156040518060400160405280601381526020017f416d6f756e742063616e206e6f742062652030000000000000000000000000008152509061273f576040517f08c379a00000000000000000000000000000000000000000000000000000000081526004018080602001828103825283818151815260200191508051906020019080838360005b838110156127045780820151818401526020810190506126e9565b50505050905090810190601f1680156127315780820380516001836020036101000a031916815260200191505b509250505060405180910390fd5b506000600160008973ffffffffffffffffffffffffffffffffffffffff1673ffffffffffffffffffffffffffffffffffffffff1681526020019081526020016000206000888152602001908152602001600020600001541415612802576000808873ffffffffffffffffffffffffffffffffffffffff1673ffffffffffffffffffffffffffffffffffffffff1681526020019081526020016000208690806001815401808255809150506001900390600052602060002001600090919091909150555b61280c87866122c9565b5061281730856122c9565b50604051806060016040528085815260200182815260200160001515815250600160008973ffffffffffffffffffffffffffffffffffffffff1673ffffffffffffffffffffffffffffffffffffffff1681526020019081526020016000206000888152602001908152602001600020600082015181600001556020820151816001015560408201518160020160006101000a81548160ff021916908315150217905550905050858773ffffffffffffffffffffffffffffffffffffffff167fea90ef40963535482537f0689e05cb8d259e459ebd21530e826702294d0eafdd8684604051808381526020018281526020019250505060405180910390a3600191505095945050505050565b6000600360008473ffffffffffffffffffffffffffffffffffffffff1673ffffffffffffffffffffffffffffffffffffffff16815260200190815260200160002060008373ffffffffffffffffffffffffffffffffffffffff1673ffffffffffffffffffffffffffffffffffffffff16815260200190815260200160002054905092915050565b60006129b3612f86565b73ffffffffffffffffffffffffffffffffffffffff166129d1612130565b73ffffffffffffffffffffffffffffffffffffffff1614612a5a576040517f08c379a00000000000000000000000000000000000000000000000000000000081526004018080602001828103825260208152602001807f4f776e61626c653a2063616c6c6572206973206e6f7420746865206f776e657281525060200191505060405180910390fd5b6000612a668386611dd6565b116040518060400160405280601081526020017f4e6f20746f6b656e73206c6f636b65640000000000000000000000000000000081525090612b43576040517f08c379a00000000000000000000000000000000000000000000000000000000081526004018080602001828103825283818151815260200191508051906020019080838360005b83811015612b08578082015181840152602081019050612aed565b50505050905090810190601f168015612b355780820380516001836020036101000a031916815260200191505b509250505060405180910390fd5b50612baa83600160008573ffffffffffffffffffffffffffffffffffffffff1673ffffffffffffffffffffffffffffffffffffffff168152602001908152602001600020600087815260200190815260200160002060010154612efe90919063ffffffff16565b600160008473ffffffffffffffffffffffffffffffffffffffff1673ffffffffffffffffffffffffffffffffffffffff168152602001908152602001600020600086815260200190815260200160002060010181905550838273ffffffffffffffffffffffffffffffffffffffff167fea90ef40963535482537f0689e05cb8d259e459ebd21530e826702294d0eafdd600160008673ffffffffffffffffffffffffffffffffffffffff1673ffffffffffffffffffffffffffffffffffffffff168152602001908152602001600020600088815260200190815260200160002060000154600160008773ffffffffffffffffffffffffffffffffffffffff1673ffffffffffffffffffffffffffffffffffffffff168152602001908152602001600020600089815260200190815260200160002060010154604051808381526020018281526020019250505060405180910390a3600190509392505050565b612d11612f86565b73ffffffffffffffffffffffffffffffffffffffff16612d2f612130565b73ffffffffffffffffffffffffffffffffffffffff1614612db8576040517f08c379a00000000000000000000000000000000000000000000000000000000081526004018080602001828103825260208152602001807f4f776e61626c653a2063616c6c6572206973206e6f7420746865206f776e657281525060200191505060405180910390fd5b600073ffffffffffffffffffffffffffffffffffffffff168173ffffffffffffffffffffffffffffffffffffffff161415612e3e576040517f08c379a000000000000000000000000000000000000000000000000000000000815260040180806020018281038252602681526020018061352d6026913960400191505060405180910390fd5b8073ffffffffffffffffffffffffffffffffffffffff16600760019054906101000a900473ffffffffffffffffffffffffffffffffffffffff1673ffffffffffffffffffffffffffffffffffffffff167f8be0079c531659141344cd1fd0a4f28419497f9722a3daafe3b4186f6b6457e060405160405180910390a380600760016101000a81548173ffffffffffffffffffffffffffffffffffffffff021916908373ffffffffffffffffffffffffffffffffffffffff16021790555050565b600080828401905083811015612f7c576040517f08c379a000000000000000000000000000000000000000000000000000000000815260040180806020018281038252601b8152602001807f536166654d6174683a206164646974696f6e206f766572666c6f77000000000081525060200191505060405180910390fd5b8091505092915050565b600033905090565b600073ffffffffffffffffffffffffffffffffffffffff168373ffffffffffffffffffffffffffffffffffffffff161415613014576040517f08c379a00000000000000000000000000000000000000000000000000000000081526004018080602001828103825260248152602001806135e86024913960400191505060405180910390fd5b600073ffffffffffffffffffffffffffffffffffffffff168273ffffffffffffffffffffffffffffffffffffffff16141561309a576040517f08c379a00000000000000000000000000000000000000000000000000000000081526004018080602001828103825260228152602001806135536022913960400191505060405180910390fd5b80600360008573ffffffffffffffffffffffffffffffffffffffff1673ffffffffffffffffffffffffffffffffffffffff16815260200190815260200160002060008473ffffffffffffffffffffffffffffffffffffffff1673ffffffffffffffffffffffffffffffffffffffff168152602001908152602001600020819055508173ffffffffffffffffffffffffffffffffffffffff168373ffffffffffffffffffffffffffffffffffffffff167f8c5be1e5ebec7d5bd14f71427d1e84f3dd0314c0f7b2291e5b200ac8c7c3b925836040518082815260200191505060405180910390a3505050565b600073ffffffffffffffffffffffffffffffffffffffff168373ffffffffffffffffffffffffffffffffffffffff16141561320b576040517f08c379a00000000000000000000000000000000000000000000000000000000081526004018080602001828103825260258152602001806135c36025913960400191505060405180910390fd5b600073ffffffffffffffffffffffffffffffffffffffff168273ffffffffffffffffffffffffffffffffffffffff161415613291576040517f08c379a000000000000000000000000000000000000000000000000000000000815260040180806020018281038252602381526020018061350a6023913960400191505060405180910390fd5b61329c838383613504565b6133088160405180606001604052806026815260200161357560269139600260008773ffffffffffffffffffffffffffffffffffffffff1673ffffffffffffffffffffffffffffffffffffffff1681526020019081526020016000205461344a9092919063ffffffff16565b600260008573ffffffffffffffffffffffffffffffffffffffff1673ffffffffffffffffffffffffffffffffffffffff1681526020019081526020016000208190555061339d81600260008573ffffffffffffffffffffffffffffffffffffffff1673ffffffffffffffffffffffffffffffffffffffff16815260200190815260200160002054612efe90919063ffffffff16565b600260008473ffffffffffffffffffffffffffffffffffffffff1673ffffffffffffffffffffffffffffffffffffffff168152602001908152602001600020819055508173ffffffffffffffffffffffffffffffffffffffff168373ffffffffffffffffffffffffffffffffffffffff167fddf252ad1be2c89b69c2b068fc378daa952ba7f163c4a11628f55a4df523b3ef836040518082815260200191505060405180910390a3505050565b60008383111582906134f7576040517f08c379a00000000000000000000000000000000000000000000000000000000081526004018080602001828103825283818151815260200191508051906020019080838360005b838110156134bc5780820151818401526020810190506134a1565b50505050905090810190601f1680156134e95780820380516001836020036101000a031916815260200191505b509250505060405180910390fd5b5082840390509392505050565b50505056fe45524332303a207472616e7366657220746f20746865207a65726f20616464726573734f776e61626c653a206e6577206f776e657220697320746865207a65726f206164647265737345524332303a20617070726f766520746f20746865207a65726f206164647265737345524332303a207472616e7366657220616d6f756e7420657863656564732062616c616e636545524332303a207472616e7366657220616d6f756e74206578636565647320616c6c6f77616e636545524332303a207472616e736665722066726f6d20746865207a65726f206164647265737345524332303a20617070726f76652066726f6d20746865207a65726f206164647265737345524332303a2064656372656173656420616c6c6f77616e63652062656c6f77207a65726fa26469706673582212203b65f81688770746a5f356b1d392021e803213b30bb23c7a52304bd46134357964736f6c634300060c0033",
  "immutableReferences": {},
  "source": "//SPDX-License-Identifier: UNLICENSED\npragma solidity ^0.6.0;\nimport \"@openzeppelin/contracts/token/ERC20/ERC20.sol\";\nimport \"@openzeppelin/contracts/math/SafeMath.sol\";\nimport \"@openzeppelin/contracts/access/Ownable.sol\";\nimport './Lock.sol';\n\n\ncontract LockableToken is Lock, ERC20,Ownable {\n\n    using SafeMath for uint256;\n    \n    uint256 sendPercentage=  20;\n    uint256 lockPercentage = 80;\n    \n    \n    bool private _vault1;\n    bool private _vault2;\n    bool private _vault3;\n    bool private _vault4;\n    \n    \n    struct vestingSchedule {\n    bool isValid;               /* true if an entry exists and is valid */\n    uint32 duration;            /* Duration of the vesting schedule, with respect to the grant start day, in days. */\n    }\n    mapping(address => vestingSchedule) private _vestingSchedules;\n\n    \n   /**\n    * @dev Error messages for require statements\n    */\n    string internal constant ALREADY_LOCKED = 'Tokens already locked';\n    string internal constant NOT_LOCKED = 'No tokens locked';\n    string internal constant AMOUNT_ZERO = 'Amount can not be 0';\n\n   /**\n    * @dev constructor to mint initial tokens\n    * Shall update to _mint once openzepplin updates their npm package.\n    */\n    \n    \n     constructor() ERC20(\"bmpc\", \"BMPC\") public{\n        _mint(msg.sender, 1000000*10**18);\n    }\n    \n\n    /**\n     * @dev Locks a specified amount of tokens against an address,\n     * for a specified reason and time\n     * @param _reason The reason to lock tokens\n     * @param _amount Number of tokens to be locked\n     * @param _time Lock time in seconds\n     * @param _beneficiary address\n     */\n    function lock(bytes32 _reason, uint256 _amount, uint256 _time, address _beneficiary)\n        public override onlyOwner\n        returns (bool)\n    {\n         uint256 validUntil = now.add(_time); //solhint-disable-line\n        \n\n        // If tokens are already locked, then functions extendLock or\n        // increaseLockAmount should be used to make any changes\n        require(tokensLocked(_beneficiary, _reason) == 0, ALREADY_LOCKED);\n        require(_amount != 0, AMOUNT_ZERO);\n\n        if (locked[_beneficiary][_reason].amount == 0)\n            lockReason[_beneficiary].push(_reason);\n\n        transfer(address(this), _amount);\n\n        locked[_beneficiary][_reason] = lockToken(_amount, validUntil, false);\n\n        emit Locked(_beneficiary, _reason, _amount, validUntil);\n        return true;\n    }\n    \n    /**\n     * @dev Transfers and Locks a specified amount of tokens,\n     * for a specified reason and time\n     * @param _beneficiary adress to which tokens are to be transfered\n     * @param _reason The reason to lock tokens\n     * @param _amountToSend Number of tokens to be transfered and locked\n     * @param _amountToLock Number of Tokens to lock\n     * @param _time Lock time in seconds\n     */\n    function transferWithLock(address _beneficiary, bytes32 _reason, uint256 _amountToSend, uint256 _amountToLock, uint256 _time)\n        public onlyOwner\n        returns (bool)\n    {   \n        \n        uint256 validUntil = now.add(_time); //solhint-disable-line\n        \n        require(tokensLocked(_beneficiary, _reason) == 0, ALREADY_LOCKED);\n        require(_amountToSend != 0, AMOUNT_ZERO);\n\n        if (locked[_beneficiary][_reason].amount == 0)\n            lockReason[_beneficiary].push(_reason);\n\n        // transfer(address(this), _amount);\n\n        // locked[_to][_reason] = lockToken(_amount, validUntil, false);\n        \n        //send 20% tokens to _beneficiary\n        transfer(_beneficiary, _amountToSend);\n        \n        //locks rest 80% tokens in Contract\n        transfer(address(this), _amountToLock);\n\n        locked[_beneficiary][_reason] = lockToken(_amountToLock, validUntil, false);\n        \n        \n        emit Locked(_beneficiary, _reason, _amountToLock, validUntil);\n        return true;\n    }\n\n    /**\n     * @dev Returns tokens locked for a specified address for a\n     *      specified reason\n     *\n     * @param _of The address whose tokens are locked\n     * @param _reason The reason to query the lock tokens for\n     */\n    function tokensLocked(address _of, bytes32 _reason)\n        public override onlyOwner\n        view\n        returns (uint256 amount)\n    {\n        if (!locked[_of][_reason].claimed)\n            amount = locked[_of][_reason].amount;\n    }\n    \n    /**\n     * @dev Returns tokens locked for a specified address for a\n     *      specified reason at a specific time\n     *\n     * @param _of The address whose tokens are locked\n     * @param _reason The reason to query the lock tokens for\n     * @param _time The timestamp to query the lock tokens for\n     */\n    function tokensLockedAtTime(address _of, bytes32 _reason, uint256 _time)\n        public override onlyOwner\n        view\n        returns (uint256 amount)\n    {\n        if (locked[_of][_reason].validity > _time)\n            amount = locked[_of][_reason].amount;\n    }\n\n    /**\n     * @dev Returns total tokens held by an address (locked + transferable)\n     * @param _of The address to query the total balance of\n     */\n    function totalBalanceOf(address _of)\n        public override onlyOwner\n        view\n        returns (uint256 amount)\n    {\n        amount = balanceOf(_of);\n\n        for (uint256 i = 0; i < lockReason[_of].length; i++) {\n            amount = amount.add(tokensLocked(_of, lockReason[_of][i]));\n        }   \n    }    \n    \n    /**\n     * @dev Extends lock for a specified reason and time\n     * @param _reason The reason to lock tokens\n     * @param _time Lock extension time in seconds\n     * @param _beneficiary address of token Holder to extend Lock\n     */\n    function extendLock(bytes32 _reason, uint256 _time, address _beneficiary)\n        public override onlyOwner\n        returns (bool)\n    {\n        require(tokensLocked(_beneficiary, _reason) > 0, NOT_LOCKED);\n\n        locked[_beneficiary][_reason].validity = locked[_beneficiary][_reason].validity.add(_time);\n\n        emit Locked(_beneficiary, _reason, locked[_beneficiary][_reason].amount, locked[_beneficiary][_reason].validity);\n        return true;\n    }\n    \n    /**\n     * @dev Increase number of tokens locked for a specified reason\n     * @param _reason The reason to lock tokens\n     * @param _amount Number of tokens to be increased\n     */\n    function increaseLockAmount(bytes32 _reason, uint256 _amount, address _beneficiary)\n        public override onlyOwner\n        returns (bool)\n    {\n        require(tokensLocked(_beneficiary, _reason) > 0, NOT_LOCKED);\n        transfer(address(this), _amount);\n\n        locked[_beneficiary][_reason].amount = locked[_beneficiary][_reason].amount.add(_amount);\n\n        emit Locked(_beneficiary, _reason, locked[_beneficiary][_reason].amount, locked[_beneficiary][_reason].validity);\n        return true;\n    }\n\n    /**\n     * @dev Returns unlockable tokens for a specified address for a specified reason\n     * @param _of The address to query the the unlockable token count of\n     * @param _reason The reason to query the unlockable tokens for\n     */\n    function tokensUnlockable(address _of, bytes32 _reason)\n        public override onlyOwner\n        view\n        returns (uint256 amount)\n    {   \n      \n        if (locked[_of][_reason].validity <= now && !locked[_of][_reason].claimed) //solhint-disable-line\n            amount = locked[_of][_reason].amount;\n        \n      \n    }\n\n    /**\n     * @dev Unlocks the unlockable tokens of a specified address\n     * @param _of Address of user, claiming back unlockable tokens\n     */\n    function unlock(address _of)\n        public override onlyOwner\n        returns (uint256 unlockableTokens)\n    {\n        uint256 lockedTokens;\n\n        for (uint256 i = 0; i < lockReason[_of].length; i++) {\n            lockedTokens = tokensUnlockable(_of, lockReason[_of][i]);\n            if (lockedTokens > 0) {\n                unlockableTokens = unlockableTokens.add(lockedTokens);\n                locked[_of][lockReason[_of][i]].claimed = true;\n                emit Unlocked(_of, lockReason[_of][i], lockedTokens);\n            }\n        }  \n\n        if (unlockableTokens > 0)\n            this.transfer(_of, unlockableTokens);\n    }\n\n    /**\n     * @dev Gets the unlockable tokens of a specified address\n     * @param _of The address to query the the unlockable token count of\n     */\n    function getUnlockableTokens(address _of)\n        public override onlyOwner\n        view\n        returns (uint256 unlockableTokens)\n    {\n        for (uint256 i = 0; i < lockReason[_of].length; i++) {\n            unlockableTokens = unlockableTokens.add(tokensUnlockable(_of, lockReason[_of][i]));\n        }  \n    }\n    \n    \n\n    \n    \n    \n}",
  "sourcePath": "/home/aliwisam/AliWisamData/OptimusFox/IEO/contracts/BMCP.sol",
  "compiler": {
    "name": "solc",
    "version": "0.6.12+commit.27d51765.Emscripten.clang"
  },
  "schemaVersion": "3.4.0",
  "updatedAt": "2021-06-05T16:35:07.637Z",
  "devdoc": {
    "kind": "dev",
    "methods": {
      "allowance(address,address)": {
        "details": "See {IERC20-allowance}."
      },
      "approve(address,uint256)": {
        "details": "See {IERC20-approve}. Requirements: - `spender` cannot be the zero address."
      },
      "balanceOf(address)": {
        "details": "See {IERC20-balanceOf}."
      },
      "constructor": {
        "details": "constructor to mint initial tokens Shall update to _mint once openzepplin updates their npm package."
      },
      "decimals()": {
        "details": "Returns the number of decimals used to get its user representation. For example, if `decimals` equals `2`, a balance of `505` tokens should be displayed to a user as `5,05` (`505 / 10 ** 2`). Tokens usually opt for a value of 18, imitating the relationship between Ether and Wei. This is the value {ERC20} uses, unless {_setupDecimals} is called. NOTE: This information is only used for _display_ purposes: it in no way affects any of the arithmetic of the contract, including {IERC20-balanceOf} and {IERC20-transfer}."
      },
      "decreaseAllowance(address,uint256)": {
        "details": "Atomically decreases the allowance granted to `spender` by the caller. This is an alternative to {approve} that can be used as a mitigation for problems described in {IERC20-approve}. Emits an {Approval} event indicating the updated allowance. Requirements: - `spender` cannot be the zero address. - `spender` must have allowance for the caller of at least `subtractedValue`."
      },
      "extendLock(bytes32,uint256,address)": {
        "details": "Extends lock for a specified reason and time",
        "params": {
          "_beneficiary": "address of token Holder to extend Lock",
          "_reason": "The reason to lock tokens",
          "_time": "Lock extension time in seconds"
        }
      },
      "getUnlockableTokens(address)": {
        "details": "Gets the unlockable tokens of a specified address",
        "params": {
          "_of": "The address to query the the unlockable token count of"
        }
      },
      "increaseAllowance(address,uint256)": {
        "details": "Atomically increases the allowance granted to `spender` by the caller. This is an alternative to {approve} that can be used as a mitigation for problems described in {IERC20-approve}. Emits an {Approval} event indicating the updated allowance. Requirements: - `spender` cannot be the zero address."
      },
      "increaseLockAmount(bytes32,uint256,address)": {
        "details": "Increase number of tokens locked for a specified reason",
        "params": {
          "_amount": "Number of tokens to be increased",
          "_reason": "The reason to lock tokens"
        }
      },
      "lock(bytes32,uint256,uint256,address)": {
        "details": "Locks a specified amount of tokens against an address, for a specified reason and time",
        "params": {
          "_amount": "Number of tokens to be locked",
          "_beneficiary": "address",
          "_reason": "The reason to lock tokens",
          "_time": "Lock time in seconds"
        }
      },
      "name()": {
        "details": "Returns the name of the token."
      },
      "owner()": {
        "details": "Returns the address of the current owner."
      },
      "renounceOwnership()": {
        "details": "Leaves the contract without owner. It will not be possible to call `onlyOwner` functions anymore. Can only be called by the current owner. NOTE: Renouncing ownership will leave the contract without an owner, thereby removing any functionality that is only available to the owner."
      },
      "symbol()": {
        "details": "Returns the symbol of the token, usually a shorter version of the name."
      },
      "tokensLocked(address,bytes32)": {
        "details": "Returns tokens locked for a specified address for a      specified reason",
        "params": {
          "_of": "The address whose tokens are locked",
          "_reason": "The reason to query the lock tokens for"
        }
      },
      "tokensLockedAtTime(address,bytes32,uint256)": {
        "details": "Returns tokens locked for a specified address for a      specified reason at a specific time",
        "params": {
          "_of": "The address whose tokens are locked",
          "_reason": "The reason to query the lock tokens for",
          "_time": "The timestamp to query the lock tokens for"
        }
      },
      "tokensUnlockable(address,bytes32)": {
        "details": "Returns unlockable tokens for a specified address for a specified reason",
        "params": {
          "_of": "The address to query the the unlockable token count of",
          "_reason": "The reason to query the unlockable tokens for"
        }
      },
      "totalBalanceOf(address)": {
        "details": "Returns total tokens held by an address (locked + transferable)",
        "params": {
          "_of": "The address to query the total balance of"
        }
      },
      "totalSupply()": {
        "details": "See {IERC20-totalSupply}."
      },
      "transfer(address,uint256)": {
        "details": "See {IERC20-transfer}. Requirements: - `recipient` cannot be the zero address. - the caller must have a balance of at least `amount`."
      },
      "transferFrom(address,address,uint256)": {
        "details": "See {IERC20-transferFrom}. Emits an {Approval} event indicating the updated allowance. This is not required by the EIP. See the note at the beginning of {ERC20}. Requirements: - `sender` and `recipient` cannot be the zero address. - `sender` must have a balance of at least `amount`. - the caller must have allowance for ``sender``'s tokens of at least `amount`."
      },
      "transferOwnership(address)": {
        "details": "Transfers ownership of the contract to a new account (`newOwner`). Can only be called by the current owner."
      },
      "transferWithLock(address,bytes32,uint256,uint256,uint256)": {
        "details": "Transfers and Locks a specified amount of tokens, for a specified reason and time",
        "params": {
          "_amountToLock": "Number of Tokens to lock",
          "_amountToSend": "Number of tokens to be transfered and locked",
          "_beneficiary": "adress to which tokens are to be transfered",
          "_reason": "The reason to lock tokens",
          "_time": "Lock time in seconds"
        }
      },
      "unlock(address)": {
        "details": "Unlocks the unlockable tokens of a specified address",
        "params": {
          "_of": "Address of user, claiming back unlockable tokens"
        }
      }
    },
    "stateVariables": {
      "ALREADY_LOCKED": {
        "details": "Error messages for require statements"
      }
    },
    "version": 1
  },
  "userdoc": {
    "kind": "user",
    "methods": {},
    "version": 1
  }
}